{
  "contractName": "SecretUser",
  "abi": [
    {
      "inputs": [
        {
          "internalType": "uint256",
          "name": "_secretId",
          "type": "uint256"
        }
      ],
      "name": "getSecret",
      "outputs": [
        {
          "internalType": "string",
          "name": "_encryptedSecret",
          "type": "string"
        },
        {
          "internalType": "uint8",
          "name": "_permission",
          "type": "uint8"
        }
      ],
      "stateMutability": "view",
      "type": "function"
    },
    {
      "inputs": [
        {
          "internalType": "uint256",
          "name": "_secretId",
          "type": "uint256"
        }
      ],
      "name": "ownerGetSecret",
      "outputs": [
        {
          "internalType": "string",
          "name": "_encryptedSecret",
          "type": "string"
        },
        {
          "internalType": "string[]",
          "name": "_names",
          "type": "string[]"
        },
        {
          "internalType": "address[]",
          "name": "_addresses",
          "type": "address[]"
        },
        {
          "internalType": "uint8[]",
          "name": "_permission",
          "type": "uint8[]"
        },
        {
          "components": [
            {
              "internalType": "address",
              "name": "user",
              "type": "address"
            },
            {
              "internalType": "string",
              "name": "publicKey",
              "type": "string"
            },
            {
              "internalType": "uint8",
              "name": "requestedPermission",
              "type": "uint8"
            }
          ],
          "internalType": "struct SecretTemplate.AccessRequest[]",
          "name": "_accessRequests",
          "type": "tuple[]"
        },
        {
          "components": [
            {
              "internalType": "address",
              "name": "user",
              "type": "address"
            },
            {
              "internalType": "string",
              "name": "newSecret",
              "type": "string"
            }
          ],
          "internalType": "struct SecretTemplate.ChangeRequest[]",
          "name": "_changeRequests",
          "type": "tuple[]"
        }
      ],
      "stateMutability": "view",
      "type": "function"
    },
    {
      "inputs": [
        {
          "internalType": "uint256",
          "name": "_secretId",
          "type": "uint256"
        },
        {
          "internalType": "address",
          "name": "_address",
          "type": "address"
        },
        {
          "internalType": "string",
          "name": "_name",
          "type": "string"
        },
        {
          "internalType": "string",
          "name": "_publicKey",
          "type": "string"
        },
        {
          "internalType": "string",
          "name": "_encryptedSecret",
          "type": "string"
        }
      ],
      "name": "addNewUser",
      "outputs": [],
      "stateMutability": "nonpayable",
      "type": "function"
    },
    {
      "inputs": [
        {
          "internalType": "uint256",
          "name": "_secretId",
          "type": "uint256"
        },
        {
          "internalType": "address",
          "name": "_address",
          "type": "address"
        }
      ],
      "name": "makeAddressViewer",
      "outputs": [],
      "stateMutability": "nonpayable",
      "type": "function"
    },
    {
      "inputs": [
        {
          "internalType": "uint256",
          "name": "_secretId",
          "type": "uint256"
        },
        {
          "internalType": "address",
          "name": "_address",
          "type": "address"
        }
      ],
      "name": "makeAddressEditor",
      "outputs": [],
      "stateMutability": "nonpayable",
      "type": "function"
    },
    {
      "inputs": [
        {
          "internalType": "uint256",
          "name": "_secretId",
          "type": "uint256"
        },
        {
          "internalType": "address",
          "name": "_address",
          "type": "address"
        }
      ],
      "name": "makeAddressOwner",
      "outputs": [],
      "stateMutability": "nonpayable",
      "type": "function"
    },
    {
      "inputs": [
        {
          "internalType": "uint256",
          "name": "_secretId",
          "type": "uint256"
        },
        {
          "internalType": "address",
          "name": "_address",
          "type": "address"
        },
        {
          "internalType": "uint256",
          "name": "_userId",
          "type": "uint256"
        }
      ],
      "name": "removeUserFromSecret",
      "outputs": [],
      "stateMutability": "nonpayable",
      "type": "function"
    },
    {
      "inputs": [
        {
          "internalType": "uint256",
          "name": "_secretId",
          "type": "uint256"
        },
        {
          "internalType": "address",
          "name": "_address",
          "type": "address"
        }
      ],
      "name": "getIndexOfAddress",
      "outputs": [
        {
          "internalType": "int256",
          "name": "",
          "type": "int256"
        }
      ],
      "stateMutability": "view",
      "type": "function"
    },
    {
      "inputs": [],
      "name": "getUserSecrets",
      "outputs": [
        {
          "internalType": "uint256[]",
          "name": "",
          "type": "uint256[]"
        }
      ],
      "stateMutability": "view",
      "type": "function"
    }
  ],
  "bytecode": "0x608060405234801561001057600080fd5b506117dd806100206000396000f3fe608060405234801561001057600080fd5b50600436106100925760003560e01c80632e09a68f116100665780632e09a68f1461010057806375bb211b146101135780638d17664d14610128578063ab0a482b14610149578063bc1855091461015c57600080fd5b8062d9c4801461009757806319fafe1e146100c55780631dad9234146100da578063276b0815146100ed575b600080fd5b6100aa6100a5366004611200565b61017d565b6040516100bc969594939291906113c6565b60405180910390f35b6100d86100d33660046114a6565b610758565b005b6100d86100e83660046114a6565b6107e7565b6100d86100fb3660046114d2565b6108db565b6100d861010e3660046115aa565b610b70565b61011b610e0c565b6040516100bc919061164d565b61013b610136366004611200565b610ef3565b6040516100bc929190611691565b6100d86101573660046114a6565b61104b565b61016f61016a3660046114a6565b611098565b6040519081526020016100bc565b6000818152600160205260409020546060908190819081908190819087906001600160a01b031633146101cb5760405162461bcd60e51b81526004016101c2906116b6565b60405180910390fd5b60008089815481106101df576101df6116f8565b600091825260208220600160089092020190810154909250908167ffffffffffffffff81111561021157610211611507565b60405190808252806020026020018201604052801561024457816020015b606081526020019060019003908161022f5790505b50905060008267ffffffffffffffff81111561026257610262611507565b60405190808252806020026020018201604052801561028b578160200160208202803683370190505b50905060008367ffffffffffffffff8111156102a9576102a9611507565b6040519080825280602002602001820160405280156102d2578160200160208202803683370190505b5090506000805b600187015481101561047c5760008760010182815481106102fc576102fc6116f8565b60009182526020808320909101546001600160a01b031680835260058b0190915260409091205490915060ff1615610469576001600160a01b0381166000908152600289016020526040902080546103539061170e565b80601f016020809104026020016040519081016040528092919081815260200182805461037f9061170e565b80156103cc5780601f106103a1576101008083540402835291602001916103cc565b820191906000526020600020905b8154815290600101906020018083116103af57829003601f168201915b50505050508684815181106103e3576103e36116f8565b602002602001018190525080858481518110610401576104016116f8565b6001600160a01b03928316602091820292909201810191909152908216600090815260058a019091526040902054845160ff90911690859085908110610449576104496116f8565b60ff90921660209283029190910190910152826104658161175f565b9350505b50806104748161175f565b9150506102d9565b503360009081526004870160205260409020805485908590859060068b019060078c019086906104ab9061170e565b80601f01602080910402602001604051908101604052809291908181526020018280546104d79061170e565b80156105245780601f106104f957610100808354040283529160200191610524565b820191906000526020600020905b81548152906001019060200180831161050757829003601f168201915b5050505050955081805480602002602001604051908101604052809291908181526020016000905b8282101561063657600084815260209081902060408051606081019091526003850290910180546001600160a01b0316825260018101805492939192918401916105959061170e565b80601f01602080910402602001604051908101604052809291908181526020018280546105c19061170e565b801561060e5780601f106105e35761010080835404028352916020019161060e565b820191906000526020600020905b8154815290600101906020018083116105f157829003601f168201915b50505091835250506002919091015460ff16602091820152908252600192909201910161054c565b50505050915080805480602002602001604051908101604052809291908181526020016000905b82821015610736576000848152602090819020604080518082019091526002850290910180546001600160a01b0316825260018101805492939192918401916106a59061170e565b80601f01602080910402602001604051908101604052809291908181526020018280546106d19061170e565b801561071e5780601f106106f35761010080835404028352916020019161071e565b820191906000526020600020905b81548152906001019060200180831161070157829003601f168201915b5050505050815250508152602001906001019061065d565b5050505090509c509c509c509c509c509c505050505050505091939550919395565b60008281526001602052604090205482906001600160a01b031633146107905760405162461bcd60e51b81526004016101c2906116b6565b6002600084815481106107a5576107a56116f8565b600091825260208083206001600160a01b039690961683526008919091029094016005019093526040909220805460ff191660ff909316929092179091555050565b60008281526001602052604090205482906001600160a01b0316331461081f5760405162461bcd60e51b81526004016101c2906116b6565b600260008481548110610834576108346116f8565b60009182526020808320338452600892909202909101600501905260408120805460ff191660ff93909316929092179091558054600391908590811061087c5761087c6116f8565b600091825260208083206001600160a01b039690961680845260089290920290950160050185526040808320805460ff191660ff9590951694909417909355948152600190935290912080546001600160a01b03191690921790915550565b60008381526001602052604090205483906001600160a01b031633146109135760405162461bcd60e51b81526004016101c2906116b6565b6000808581548110610927576109276116f8565b600091825260208083206001600160a01b038816845260089290920290910160050181526040808320805460ff191660ff95909516949094179093558251908101909252808252805486908110610980576109806116f8565b90600052602060002090600802016004016000856001600160a01b03166001600160a01b0316815260200190815260200160002090805190602001906109c7929190611167565b5060405180602001604052806000815250600085815481106109eb576109eb6116f8565b90600052602060002090600802016003016000856001600160a01b03166001600160a01b031681526020019081526020016000209080519060200190610a32929190611167565b5060008481548110610a4657610a466116f8565b9060005260206000209060080201600101600160008681548110610a6c57610a6c6116f8565b906000526020600020906008020160010180549050610a8b919061177a565b81548110610a9b57610a9b6116f8565b600091825260208220015481546001600160a01b03909116919086908110610ac557610ac56116f8565b90600052602060002090600802016001018381548110610ae757610ae76116f8565b9060005260206000200160006101000a8154816001600160a01b0302191690836001600160a01b0316021790555060008481548110610b2857610b286116f8565b9060005260206000209060080201600101805480610b4857610b48611791565b600082815260209020810160001990810180546001600160a01b031916905501905550505050565b60008581526001602052604090205485906001600160a01b03163314610ba85760405162461bcd60e51b81526004016101c2906116b6565b60008681548110610bbb57610bbb6116f8565b600091825260208083206001600160a01b03891684526005600890930201919091019052604090205460ff16610c505760405162461bcd60e51b815260206004820152603460248201527f43616e6e6f742061646420616e2061646472657373207468617420616c726561604482015273191e481adb9bdddcc81d1a1a5cc81cd958dc995d60621b60648201526084016101c2565b60008681548110610c6357610c636116f8565b600091825260208083206001600890930201820180549283018155835282200180546001600160a01b0388166001600160a01b0319909116179055805485919088908110610cb357610cb36116f8565b90600052602060002090600802016002016000876001600160a01b03166001600160a01b031681526020019081526020016000209080519060200190610cfa929190611167565b508260008781548110610d0f57610d0f6116f8565b90600052602060002090600802016003016000876001600160a01b03166001600160a01b031681526020019081526020016000209080519060200190610d56929190611167565b508160008781548110610d6b57610d6b6116f8565b90600052602060002090600802016004016000876001600160a01b03166001600160a01b031681526020019081526020016000209080519060200190610db2929190611167565b506000808781548110610dc757610dc76116f8565b600091825260208083206001600160a01b039990991683526008919091029097016005019096526040909520805460ff191660ff909616959095179094555050505050565b336000908152600260205260408120546060919067ffffffffffffffff811115610e3857610e38611507565b604051908082528060200260200182016040528015610e61578160200160208202803683370190505b5090506000805b600054811015610eeb5760008181548110610e8557610e856116f8565b600091825260208083203384526005600890930201919091019052604090205460ff1615610ed95780838381518110610ec057610ec06116f8565b602090810291909101015281610ed58161175f565b9250505b80610ee38161175f565b915050610e68565b509092915050565b606060008060008481548110610f0b57610f0b6116f8565b600091825260208083203384526005600890930201918201905260409091205490915060ff16610f8f5760405162461bcd60e51b815260206004820152602960248201527f53656e646572206973206e6f7420616c6c6f77656420746f20766965772074686044820152681a5cc81cd958dc995d60ba1b60648201526084016101c2565b33600090815260048201602090815260408083206005850190925290912054815460ff909116908290610fc19061170e565b80601f0160208091040260200160405190810160405280929190818152602001828054610fed9061170e565b801561103a5780601f1061100f5761010080835404028352916020019161103a565b820191906000526020600020905b81548152906001019060200180831161101d57829003601f168201915b505050505091509250925050915091565b60008281526001602052604090205482906001600160a01b031633146110835760405162461bcd60e51b81526004016101c2906116b6565b6001600084815481106107a5576107a56116f8565b60008281526001602052604081205483906001600160a01b031633146110d05760405162461bcd60e51b81526004016101c2906116b6565b60008085815481106110e4576110e46116f8565b9060005260206000209060080201905060005b600182015481101561115857846001600160a01b0316826001018281548110611122576111226116f8565b6000918252602090912001546001600160a01b031614156111465792506111609050565b806111508161175f565b9150506110f7565b506000199250505b5092915050565b8280546111739061170e565b90600052602060002090601f01602090048101928261119557600085556111db565b82601f106111ae57805160ff19168380011785556111db565b828001600101855582156111db579182015b828111156111db5782518255916020019190600101906111c0565b506111e79291506111eb565b5090565b5b808211156111e757600081556001016111ec565b60006020828403121561121257600080fd5b5035919050565b6000815180845260005b8181101561123f57602081850181015186830182015201611223565b81811115611251576000602083870101525b50601f01601f19169290920160200192915050565b600081518084526020808501945080840160005b8381101561129f5781516001600160a01b03168752958201959082019060010161127a565b509495945050505050565b600081518084526020808501945080840160005b8381101561129f57815160ff16875295820195908201906001016112be565b600081518084526020808501808196508360051b8101915082860160005b85811015611354578284038952815180516001600160a01b031685528581015160608787018190529061133082880182611219565b60409384015160ff16979093019690965250988501989350908401906001016112fb565b5091979650505050505050565b600081518084526020808501808196508360051b8101915082860160005b85811015611354578284038952815180516001600160a01b0316855285015160408686018190526113b281870183611219565b9a87019a955050509084019060010161137f565b60c0815260006113d960c0830189611219565b6020838203818501528189518084528284019150828160051b850101838c0160005b8381101561142957601f19878403018552611417838351611219565b948601949250908501906001016113fb565b5050868103604088015261143d818c611266565b945050505050828103606084015261145581876112aa565b9050828103608084015261146981866112dd565b905082810360a084015261147d8185611361565b9998505050505050505050565b80356001600160a01b03811681146114a157600080fd5b919050565b600080604083850312156114b957600080fd5b823591506114c96020840161148a565b90509250929050565b6000806000606084860312156114e757600080fd5b833592506114f76020850161148a565b9150604084013590509250925092565b634e487b7160e01b600052604160045260246000fd5b600082601f83011261152e57600080fd5b813567ffffffffffffffff8082111561154957611549611507565b604051601f8301601f19908116603f0116810190828211818310171561157157611571611507565b8160405283815286602085880101111561158a57600080fd5b836020870160208301376000602085830101528094505050505092915050565b600080600080600060a086880312156115c257600080fd5b853594506115d26020870161148a565b9350604086013567ffffffffffffffff808211156115ef57600080fd5b6115fb89838a0161151d565b9450606088013591508082111561161157600080fd5b61161d89838a0161151d565b9350608088013591508082111561163357600080fd5b506116408882890161151d565b9150509295509295909350565b6020808252825182820181905260009190848201906040850190845b8181101561168557835183529284019291840191600101611669565b50909695505050505050565b6040815260006116a46040830185611219565b905060ff831660208301529392505050565b60208082526022908201527f4f6e6c79206f776e6572732063616e2063616c6c20746869732066756e63746960408201526137b760f11b606082015260800190565b634e487b7160e01b600052603260045260246000fd5b600181811c9082168061172257607f821691505b6020821081141561174357634e487b7160e01b600052602260045260246000fd5b50919050565b634e487b7160e01b600052601160045260246000fd5b600060001982141561177357611773611749565b5060010190565b60008282101561178c5761178c611749565b500390565b634e487b7160e01b600052603160045260246000fdfea2646970667358221220feea9db69d551327095f6dbc8a5a0caea63ea7e2aac6e1d2c5c6c6d253518d6e64736f6c634300080a0033",
  "immutableReferences": {},
  "source": "pragma solidity 0.8.10;\r\n\r\nimport \"./SecretTemplate.sol\";\r\n\r\ncontract SecretUser is SecretTemplate\r\n{\r\n    /// @notice adds a user to a secret with no access.  Must be run before trying to change an address' permissions\r\n    /// @param _secretId ID of the secret\r\n    /// @param _address Address of the new user\r\n    /// @param _name Name of the new user, selected by the owner\r\n    /// @param _publicKey Public key of the new user\r\n    /// @param _encryptedSecret Address-specific encrypted version of the secret\r\n    function addNewUser(uint _secretId, address _address, string memory _name, string memory _publicKey, string memory _encryptedSecret) public onlySecretOwner(_secretId)\r\n    {\r\n        require(secrets[_secretId].permissions[_address] != 0, \"Cannot add an address that already knows this secret\");\r\n        \r\n        secrets[_secretId].addresses.push(_address);\r\n        secrets[_secretId].names[_address] = _name; // An applying user can't suggest a name, which might otherwise be used to try and trick someone (IE 'your doctor' applying)\r\n        secrets[_secretId].publicKeys[_address] = _publicKey;\r\n        secrets[_secretId].encryptedSecrets[_address] = _encryptedSecret;\r\n        secrets[_secretId].permissions[_address] = 0;\r\n    }\r\n    \r\n    /// @notice Lets the owner of a secret make an address a viewer\r\n    /// @param _secretId ID of the secret\r\n    /// @param _address address of the new viewer\r\n    function makeAddressViewer(uint _secretId, address _address) public onlySecretOwner(_secretId)\r\n    {\r\n        secrets[_secretId].permissions[_address] = 1;\r\n    }\r\n    \r\n    /// @notice Lets the owner of a secret make an address an editor\r\n    /// @param _secretId ID of the secret\r\n    /// @param _address address of the new editor\r\n    function makeAddressEditor(uint _secretId, address _address) public onlySecretOwner(_secretId)\r\n    {\r\n        secrets[_secretId].permissions[_address] = 2;\r\n    }\r\n    \r\n    /// @notice Lets the owner of a secret transfer ownership\r\n    /// @param _secretId ID of the secret\r\n    /// @param _address Address of the new owner\r\n    function makeAddressOwner(uint _secretId, address _address) public onlySecretOwner(_secretId)\r\n    {\r\n        secrets[_secretId].permissions[msg.sender] = 2; // we know the sender is the owner because of the onlySecretOwner modifier\r\n        secrets[_secretId].permissions[_address] = 3;\r\n        \r\n        secretToOwner[_secretId] = _address;\r\n    }\r\n    \r\n    /// @notice Lets the owner of a secret remove a user from the secret\r\n    /// @param _secretId ID of the secret\r\n     /// @param _address Address of the old user\r\n    /// @param _userId ID of the old user, given by getIndexOfAddress(address _address)\r\n    function removeUserFromSecret(uint _secretId, address _address, uint _userId) public onlySecretOwner(_secretId)\r\n    {\r\n        secrets[_secretId].permissions[_address] = 0;\r\n        secrets[_secretId].encryptedSecrets[_address] = \"\";\r\n        secrets[_secretId].publicKeys[_address] = \"\";\r\n        \r\n        // The order of the addresses in the Secret.addresses list won't be preserved, but that's alright I think\r\n        secrets[_secretId].addresses[_userId] = secrets[_secretId].addresses[secrets[_secretId].addresses.length-1];\r\n        secrets[_secretId].addresses.pop();\r\n    }\r\n    \r\n    /// @notice Gets the index of an address\r\n    /// @dev returns -1 if the address does not have access to this secret\r\n    /// @param _secretId ID of the secret\r\n    /// @param _address Address for which an index will be provided\r\n    function getIndexOfAddress(uint _secretId, address _address) public view onlySecretOwner(_secretId) returns (int)\r\n    {\r\n        Secret storage secret = secrets[_secretId];\r\n        \r\n        for(uint i = 0; i < secret.addresses.length; i ++)\r\n        {\r\n            if (secret.addresses[i] == _address)\r\n            {\r\n                return int(i);\r\n            }\r\n        }\r\n        \r\n        return -1;\r\n    }\r\n    \r\n    /// @notice Gets all the secrets the sender knows\r\n    /// @return Array of all the secret IDs\r\n    function getUserSecrets() public view returns (uint[] memory)\r\n    {\r\n        uint[] memory results = new uint[](ownerSecretCount[msg.sender]);\r\n        uint counter = 0;\r\n        for (uint i = 0; i < secrets.length; i ++)\r\n        {\r\n            if (secrets[i].permissions[msg.sender] != 0)\r\n            {\r\n                results[counter] = i;\r\n                counter ++;\r\n            }\r\n        }\r\n        \r\n        return results;\r\n        \r\n    }\r\n}",
  "sourcePath": "D:\\Projects\\Crypto\\Secrets on the Chain\\contracts\\SecretUser.sol",
  "compiler": {
    "name": "solc",
    "version": "0.8.10+commit.fc410830.Emscripten.clang"
  },
  "schemaVersion": "3.4.3",
  "updatedAt": "2021-11-24T23:37:11.022Z",
  "devdoc": {
    "kind": "dev",
    "methods": {
      "addNewUser(uint256,address,string,string,string)": {
        "params": {
          "_address": "Address of the new user",
          "_encryptedSecret": "Address-specific encrypted version of the secret",
          "_name": "Name of the new user, selected by the owner",
          "_publicKey": "Public key of the new user",
          "_secretId": "ID of the secret"
        }
      },
      "getIndexOfAddress(uint256,address)": {
        "details": "returns -1 if the address does not have access to this secret",
        "params": {
          "_address": "Address for which an index will be provided",
          "_secretId": "ID of the secret"
        }
      },
      "getSecret(uint256)": {
        "returns": {
          "_encryptedSecret": "Sender-specific encrypted version of the secret",
          "_permission": "Permission level of the owner"
        }
      },
      "getUserSecrets()": {
        "returns": {
          "_0": "Array of all the secret IDs"
        }
      },
      "makeAddressEditor(uint256,address)": {
        "params": {
          "_address": "address of the new editor",
          "_secretId": "ID of the secret"
        }
      },
      "makeAddressOwner(uint256,address)": {
        "params": {
          "_address": "Address of the new owner",
          "_secretId": "ID of the secret"
        }
      },
      "makeAddressViewer(uint256,address)": {
        "params": {
          "_address": "address of the new viewer",
          "_secretId": "ID of the secret"
        }
      },
      "ownerGetSecret(uint256)": {
        "returns": {
          "_addresses": "Addresses for each user allowed access to the secret",
          "_encryptedSecret": "Sender-specific encrypted version of the secret",
          "_names": "Names for each address",
          "_permission": "Permissions for each address"
        }
      },
      "removeUserFromSecret(uint256,address,uint256)": {
        "params": {
          "_address": "Address of the old user",
          "_secretId": "ID of the secret",
          "_userId": "ID of the old user, given by getIndexOfAddress(address _address)"
        }
      }
    },
    "version": 1
  },
  "userdoc": {
    "kind": "user",
    "methods": {
      "addNewUser(uint256,address,string,string,string)": {
        "notice": "adds a user to a secret with no access.  Must be run before trying to change an address' permissions"
      },
      "getIndexOfAddress(uint256,address)": {
        "notice": "Gets the index of an address"
      },
      "getSecret(uint256)": {
        "notice": "Gets a secret by its ID"
      },
      "getUserSecrets()": {
        "notice": "Gets all the secrets the sender knows"
      },
      "makeAddressEditor(uint256,address)": {
        "notice": "Lets the owner of a secret make an address an editor"
      },
      "makeAddressOwner(uint256,address)": {
        "notice": "Lets the owner of a secret transfer ownership"
      },
      "makeAddressViewer(uint256,address)": {
        "notice": "Lets the owner of a secret make an address a viewer"
      },
      "ownerGetSecret(uint256)": {
        "notice": "Gets all information on a secret"
      },
      "removeUserFromSecret(uint256,address,uint256)": {
        "notice": "Lets the owner of a secret remove a user from the secret"
      }
    },
    "version": 1
  }
}