{
  "contractName": "SecretTemplate",
  "abi": [
    {
      "inputs": [
        {
          "internalType": "uint256",
          "name": "_secretId",
          "type": "uint256"
        }
      ],
      "name": "getSecret",
      "outputs": [
        {
          "internalType": "string",
          "name": "_encryptedSecret",
          "type": "string"
        },
        {
          "internalType": "uint8",
          "name": "_permission",
          "type": "uint8"
        }
      ],
      "stateMutability": "view",
      "type": "function"
    },
    {
      "inputs": [
        {
          "internalType": "uint256",
          "name": "_secretId",
          "type": "uint256"
        }
      ],
      "name": "ownerGetSecret",
      "outputs": [
        {
          "internalType": "string",
          "name": "_encryptedSecret",
          "type": "string"
        },
        {
          "internalType": "string[]",
          "name": "_names",
          "type": "string[]"
        },
        {
          "internalType": "address[]",
          "name": "_addresses",
          "type": "address[]"
        },
        {
          "internalType": "uint8[]",
          "name": "_permission",
          "type": "uint8[]"
        },
        {
          "components": [
            {
              "internalType": "address",
              "name": "user",
              "type": "address"
            },
            {
              "internalType": "string",
              "name": "publicKey",
              "type": "string"
            },
            {
              "internalType": "uint8",
              "name": "requestedPermission",
              "type": "uint8"
            }
          ],
          "internalType": "struct SecretTemplate.AccessRequest[]",
          "name": "_accessRequests",
          "type": "tuple[]"
        },
        {
          "components": [
            {
              "internalType": "address",
              "name": "user",
              "type": "address"
            },
            {
              "internalType": "string",
              "name": "newSecret",
              "type": "string"
            }
          ],
          "internalType": "struct SecretTemplate.ChangeRequest[]",
          "name": "_changeRequests",
          "type": "tuple[]"
        }
      ],
      "stateMutability": "view",
      "type": "function"
    }
  ],
  "bytecode": "0x608060405234801561001057600080fd5b50610b68806100206000396000f3fe608060405234801561001057600080fd5b50600436106100355760003560e01c8062d9c4801461003a5780638d17664d14610068575b600080fd5b61004d6100483660046107f3565b610089565b60405161005f969594939291906109b9565b60405180910390f35b61007b6100763660046107f3565b61069b565b60405161005f929190610a7d565b6000818152600160205260409020546060908190819081908190819087906001600160a01b0316331461010e5760405162461bcd60e51b815260206004820152602260248201527f4f6e6c79206f776e6572732063616e2063616c6c20746869732066756e63746960448201526137b760f11b60648201526084015b60405180910390fd5b600080898154811061012257610122610aa2565b600091825260208220600160089092020190810154909250908167ffffffffffffffff81111561015457610154610ab8565b60405190808252806020026020018201604052801561018757816020015b60608152602001906001900390816101725790505b50905060008267ffffffffffffffff8111156101a5576101a5610ab8565b6040519080825280602002602001820160405280156101ce578160200160208202803683370190505b50905060008367ffffffffffffffff8111156101ec576101ec610ab8565b604051908082528060200260200182016040528015610215578160200160208202803683370190505b5090506000805b60018701548110156103bf57600087600101828154811061023f5761023f610aa2565b60009182526020808320909101546001600160a01b031680835260058b0190915260409091205490915060ff16156103ac576001600160a01b03811660009081526002890160205260409020805461029690610ace565b80601f01602080910402602001604051908101604052809291908181526020018280546102c290610ace565b801561030f5780601f106102e45761010080835404028352916020019161030f565b820191906000526020600020905b8154815290600101906020018083116102f257829003601f168201915b505050505086848151811061032657610326610aa2565b60200260200101819052508085848151811061034457610344610aa2565b6001600160a01b03928316602091820292909201810191909152908216600090815260058a019091526040902054845160ff9091169085908590811061038c5761038c610aa2565b60ff90921660209283029190910190910152826103a881610b09565b9350505b50806103b781610b09565b91505061021c565b503360009081526004870160205260409020805485908590859060068b019060078c019086906103ee90610ace565b80601f016020809104026020016040519081016040528092919081815260200182805461041a90610ace565b80156104675780601f1061043c57610100808354040283529160200191610467565b820191906000526020600020905b81548152906001019060200180831161044a57829003601f168201915b5050505050955081805480602002602001604051908101604052809291908181526020016000905b8282101561057957600084815260209081902060408051606081019091526003850290910180546001600160a01b0316825260018101805492939192918401916104d890610ace565b80601f016020809104026020016040519081016040528092919081815260200182805461050490610ace565b80156105515780601f1061052657610100808354040283529160200191610551565b820191906000526020600020905b81548152906001019060200180831161053457829003601f168201915b50505091835250506002919091015460ff16602091820152908252600192909201910161048f565b50505050915080805480602002602001604051908101604052809291908181526020016000905b82821015610679576000848152602090819020604080518082019091526002850290910180546001600160a01b0316825260018101805492939192918401916105e890610ace565b80601f016020809104026020016040519081016040528092919081815260200182805461061490610ace565b80156106615780601f1061063657610100808354040283529160200191610661565b820191906000526020600020905b81548152906001019060200180831161064457829003601f168201915b505050505081525050815260200190600101906105a0565b5050505090509c509c509c509c509c509c505050505050505091939550919395565b6060600080600084815481106106b3576106b3610aa2565b600091825260208083203384526005600890930201918201905260409091205490915060ff166107375760405162461bcd60e51b815260206004820152602960248201527f53656e646572206973206e6f7420616c6c6f77656420746f20766965772074686044820152681a5cc81cd958dc995d60ba1b6064820152608401610105565b33600090815260048201602090815260408083206005850190925290912054815460ff90911690829061076990610ace565b80601f016020809104026020016040519081016040528092919081815260200182805461079590610ace565b80156107e25780601f106107b7576101008083540402835291602001916107e2565b820191906000526020600020905b8154815290600101906020018083116107c557829003601f168201915b505050505091509250925050915091565b60006020828403121561080557600080fd5b5035919050565b6000815180845260005b8181101561083257602081850181015186830182015201610816565b81811115610844576000602083870101525b50601f01601f19169290920160200192915050565b600081518084526020808501945080840160005b838110156108925781516001600160a01b03168752958201959082019060010161086d565b509495945050505050565b600081518084526020808501945080840160005b8381101561089257815160ff16875295820195908201906001016108b1565b600081518084526020808501808196508360051b8101915082860160005b85811015610947578284038952815180516001600160a01b03168552858101516060878701819052906109238288018261080c565b60409384015160ff16979093019690965250988501989350908401906001016108ee565b5091979650505050505050565b600081518084526020808501808196508360051b8101915082860160005b85811015610947578284038952815180516001600160a01b0316855285015160408686018190526109a58187018361080c565b9a87019a9550505090840190600101610972565b60c0815260006109cc60c083018961080c565b6020838203818501528189518084528284019150828160051b850101838c0160005b83811015610a1c57601f19878403018552610a0a83835161080c565b948601949250908501906001016109ee565b50508681036040880152610a30818c610859565b9450505050508281036060840152610a48818761089d565b90508281036080840152610a5c81866108d0565b905082810360a0840152610a708185610954565b9998505050505050505050565b604081526000610a90604083018561080c565b905060ff831660208301529392505050565b634e487b7160e01b600052603260045260246000fd5b634e487b7160e01b600052604160045260246000fd5b600181811c90821680610ae257607f821691505b60208210811415610b0357634e487b7160e01b600052602260045260246000fd5b50919050565b6000600019821415610b2b57634e487b7160e01b600052601160045260246000fd5b506001019056fea26469706673582212201ab742437eba5d9fc233f5953997aa2f6b156ba4e60e9d512bc029c6256f1ac264736f6c634300080a0033",
  "immutableReferences": {},
  "source": "pragma solidity 0.8.10;\r\n\r\n/// @title A contract which lets users store and access secrets in the blockchain\r\ncontract SecretTemplate\r\n{\r\n    \r\n    struct AccessRequest\r\n    {\r\n        address user;\r\n        string publicKey;\r\n        uint8 requestedPermission;\r\n    }\r\n    \r\n    struct ChangeRequest\r\n    {\r\n        address user;\r\n        string newSecret; // encrypted with the owner's public key\r\n    }\r\n    \r\n    struct Secret\r\n    {\r\n        string secretName; // unencrypted - saves storage\r\n        \r\n        //! I feel like there must be a better way to loop over all addresses with access, but I can't think of one\r\n        address[] addresses;                         // list of all addresses with access to the secret.  Used by the owner for large-scale changes\r\n        \r\n        mapping(address => string) names;            // names coresponding to each address, set by the owner\r\n        mapping(address => string) publicKeys;       // public keys for each user\r\n        mapping(address => string) encryptedSecrets; // secrets encrypted with each user's public key\r\n        mapping(address => uint8) permissions;       // 0 = no access (default), 1 = viewer, 2 = editor, 3 = owner\r\n        \r\n        AccessRequest[] accessRequests;\r\n        ChangeRequest[] changeRequests;\r\n    }\r\n    \r\n    Secret[] internal secrets;\r\n    \r\n    mapping (uint => address) secretToOwner;\r\n    mapping (address => uint) ownerSecretCount;\r\n    \r\n    // modifier to check if the caller is the owner of the secret.  Used for admin functions\r\n    modifier onlySecretOwner(uint _secretId)\r\n    {\r\n        require (secretToOwner[_secretId] == msg.sender, \"Only owners can call this function\");\r\n        _;\r\n    }\r\n    \r\n    /// @notice Gets a secret by its ID\r\n    /// @return _encryptedSecret Sender-specific encrypted version of the secret\r\n    ///@return _permission Permission level of the owner\r\n    function getSecret(uint _secretId) public view returns (string memory _encryptedSecret, uint8 _permission)\r\n    {\r\n        Secret storage mySecret = secrets[_secretId];\r\n        require(mySecret.permissions[msg.sender] != 0, \"Sender is not allowed to view this secret\");\r\n        \r\n        return (mySecret.encryptedSecrets[msg.sender], mySecret.permissions[msg.sender]);\r\n    }\r\n    \r\n    /// @notice Gets all information on a secret\r\n    /// @return _encryptedSecret Sender-specific encrypted version of the secret\r\n    /// @return _names Names for each address\r\n    /// @return _addresses Addresses for each user allowed access to the secret\r\n    /// @return _permission Permissions for each address\r\n    function ownerGetSecret(uint _secretId) public view onlySecretOwner(_secretId) returns (\r\n        string memory _encryptedSecret, \r\n        string[] memory _names, \r\n        address[] memory _addresses, \r\n        uint8[] memory _permission,\r\n        AccessRequest[] memory _accessRequests,\r\n        ChangeRequest[] memory _changeRequests\r\n    )\r\n    {\r\n        // I know that this isn't technically secure, but it seems like the kind of thing that could be helpfull - regular users just don't need this kind of information\r\n        Secret storage mySecret = secrets[_secretId];\r\n        \r\n        uint maxUserCount = mySecret.addresses.length; // can be higher than the number of current users, but never lower\r\n        string[] memory names = new string[](maxUserCount);\r\n        address[] memory addresses = new address[](maxUserCount);\r\n        uint8[] memory permissions = new uint8[](maxUserCount);\r\n        \r\n        uint counter = 0;\r\n        for(uint i = 0; i < mySecret.addresses.length; i ++)\r\n        {\r\n            address addr = mySecret.addresses[i];\r\n            if (mySecret.permissions[addr] != 0)\r\n            {\r\n                // address has some form of access\r\n                names[counter] = mySecret.names[addr];\r\n                addresses[counter] = addr;\r\n                permissions[counter] = mySecret.permissions[addr];\r\n                \r\n                counter ++;\r\n            }\r\n        }\r\n        \r\n        return (\r\n            mySecret.encryptedSecrets[msg.sender], \r\n            names, \r\n            addresses, \r\n            permissions,\r\n            mySecret.accessRequests,\r\n            mySecret.changeRequests\r\n        );\r\n    }\r\n}",
  "sourcePath": "D:\\Projects\\Crypto\\Secrets on the Chain\\contracts\\SecretTemplate.sol",
  "compiler": {
    "name": "solc",
    "version": "0.8.10+commit.fc410830.Emscripten.clang"
  },
  "schemaVersion": "3.4.3",
  "updatedAt": "2021-11-24T23:37:11.015Z",
  "devdoc": {
    "kind": "dev",
    "methods": {
      "getSecret(uint256)": {
        "returns": {
          "_encryptedSecret": "Sender-specific encrypted version of the secret",
          "_permission": "Permission level of the owner"
        }
      },
      "ownerGetSecret(uint256)": {
        "returns": {
          "_addresses": "Addresses for each user allowed access to the secret",
          "_encryptedSecret": "Sender-specific encrypted version of the secret",
          "_names": "Names for each address",
          "_permission": "Permissions for each address"
        }
      }
    },
    "title": "A contract which lets users store and access secrets in the blockchain",
    "version": 1
  },
  "userdoc": {
    "kind": "user",
    "methods": {
      "getSecret(uint256)": {
        "notice": "Gets a secret by its ID"
      },
      "ownerGetSecret(uint256)": {
        "notice": "Gets all information on a secret"
      }
    },
    "version": 1
  }
}