{
  "contractName": "SecretMutability",
  "abi": [
    {
      "inputs": [
        {
          "internalType": "uint256",
          "name": "_secretId",
          "type": "uint256"
        },
        {
          "internalType": "address",
          "name": "_address",
          "type": "address"
        },
        {
          "internalType": "string",
          "name": "_name",
          "type": "string"
        },
        {
          "internalType": "string",
          "name": "_publicKey",
          "type": "string"
        },
        {
          "internalType": "string",
          "name": "_encryptedSecret",
          "type": "string"
        }
      ],
      "name": "addNewUser",
      "outputs": [],
      "stateMutability": "nonpayable",
      "type": "function"
    },
    {
      "inputs": [
        {
          "internalType": "uint256",
          "name": "_secretId",
          "type": "uint256"
        },
        {
          "internalType": "address",
          "name": "_address",
          "type": "address"
        }
      ],
      "name": "getIndexOfAddress",
      "outputs": [
        {
          "internalType": "int256",
          "name": "",
          "type": "int256"
        }
      ],
      "stateMutability": "view",
      "type": "function",
      "constant": true
    },
    {
      "inputs": [
        {
          "internalType": "uint256",
          "name": "_secretId",
          "type": "uint256"
        }
      ],
      "name": "getSecret",
      "outputs": [
        {
          "internalType": "string",
          "name": "_encryptedSecret",
          "type": "string"
        },
        {
          "internalType": "uint8",
          "name": "_permission",
          "type": "uint8"
        }
      ],
      "stateMutability": "view",
      "type": "function",
      "constant": true
    },
    {
      "inputs": [],
      "name": "getUserSecrets",
      "outputs": [
        {
          "internalType": "uint256[]",
          "name": "",
          "type": "uint256[]"
        }
      ],
      "stateMutability": "view",
      "type": "function",
      "constant": true
    },
    {
      "inputs": [
        {
          "internalType": "uint256",
          "name": "_secretId",
          "type": "uint256"
        },
        {
          "internalType": "address",
          "name": "_address",
          "type": "address"
        }
      ],
      "name": "makeAddressEditor",
      "outputs": [],
      "stateMutability": "nonpayable",
      "type": "function"
    },
    {
      "inputs": [
        {
          "internalType": "uint256",
          "name": "_secretId",
          "type": "uint256"
        },
        {
          "internalType": "address",
          "name": "_address",
          "type": "address"
        }
      ],
      "name": "makeAddressOwner",
      "outputs": [],
      "stateMutability": "nonpayable",
      "type": "function"
    },
    {
      "inputs": [
        {
          "internalType": "uint256",
          "name": "_secretId",
          "type": "uint256"
        },
        {
          "internalType": "address",
          "name": "_address",
          "type": "address"
        }
      ],
      "name": "makeAddressViewer",
      "outputs": [],
      "stateMutability": "nonpayable",
      "type": "function"
    },
    {
      "inputs": [
        {
          "internalType": "uint256",
          "name": "_secretId",
          "type": "uint256"
        }
      ],
      "name": "ownerGetSecret",
      "outputs": [
        {
          "internalType": "string",
          "name": "_encryptedSecret",
          "type": "string"
        },
        {
          "internalType": "string[]",
          "name": "_names",
          "type": "string[]"
        },
        {
          "internalType": "address[]",
          "name": "_addresses",
          "type": "address[]"
        },
        {
          "internalType": "uint8[]",
          "name": "_permission",
          "type": "uint8[]"
        },
        {
          "components": [
            {
              "internalType": "address",
              "name": "user",
              "type": "address"
            },
            {
              "internalType": "string",
              "name": "publicKey",
              "type": "string"
            },
            {
              "internalType": "uint8",
              "name": "requestedPermission",
              "type": "uint8"
            }
          ],
          "internalType": "struct SecretTemplate.AccessRequest[]",
          "name": "_accessRequests",
          "type": "tuple[]"
        },
        {
          "components": [
            {
              "internalType": "address",
              "name": "user",
              "type": "address"
            },
            {
              "internalType": "string",
              "name": "newSecret",
              "type": "string"
            }
          ],
          "internalType": "struct SecretTemplate.ChangeRequest[]",
          "name": "_changeRequests",
          "type": "tuple[]"
        }
      ],
      "stateMutability": "view",
      "type": "function",
      "constant": true
    },
    {
      "inputs": [
        {
          "internalType": "uint256",
          "name": "_secretId",
          "type": "uint256"
        },
        {
          "internalType": "address",
          "name": "_address",
          "type": "address"
        },
        {
          "internalType": "uint256",
          "name": "_userId",
          "type": "uint256"
        }
      ],
      "name": "removeUserFromSecret",
      "outputs": [],
      "stateMutability": "nonpayable",
      "type": "function"
    },
    {
      "inputs": [
        {
          "internalType": "string",
          "name": "_secretName",
          "type": "string"
        },
        {
          "internalType": "string",
          "name": "_ownerPublicKey",
          "type": "string"
        },
        {
          "internalType": "string",
          "name": "_encryptedSecret",
          "type": "string"
        }
      ],
      "name": "createSecret",
      "outputs": [],
      "stateMutability": "nonpayable",
      "type": "function"
    },
    {
      "inputs": [
        {
          "internalType": "uint256",
          "name": "_secretId",
          "type": "uint256"
        },
        {
          "internalType": "string",
          "name": "_publicKey",
          "type": "string"
        },
        {
          "internalType": "uint8",
          "name": "_requestedPermission",
          "type": "uint8"
        }
      ],
      "name": "requestAccess",
      "outputs": [],
      "stateMutability": "nonpayable",
      "type": "function"
    },
    {
      "inputs": [
        {
          "internalType": "uint256",
          "name": "_secretId",
          "type": "uint256"
        },
        {
          "internalType": "string",
          "name": "_newSecret",
          "type": "string"
        }
      ],
      "name": "requestChange",
      "outputs": [],
      "stateMutability": "nonpayable",
      "type": "function"
    },
    {
      "inputs": [
        {
          "internalType": "uint256",
          "name": "_secretId",
          "type": "uint256"
        },
        {
          "internalType": "string[]",
          "name": "_newEncryptedSecrets",
          "type": "string[]"
        }
      ],
      "name": "changeSecret",
      "outputs": [],
      "stateMutability": "nonpayable",
      "type": "function"
    }
  ],
  "bytecode": "0x608060405234801561001057600080fd5b5061206f806100206000396000f3fe608060405234801561001057600080fd5b50600436106100ce5760003560e01c80636d4386251161008c578063ab0a482b11610066578063ab0a482b146101ab578063bc185509146101be578063e214de96146101df578063fcd97a6a146101f257600080fd5b80636d4386251461016257806375bb211b146101755780638d17664d1461018a57600080fd5b8062d9c480146100d357806319fafe1e146101015780631dad923414610116578063276b08151461012957806328960e401461013c5780632e09a68f1461014f575b600080fd5b6100e66100e136600461187f565b610205565b6040516100f896959493929190611a45565b60405180910390f35b61011461010f366004611b25565b6107e0565b005b610114610124366004611b25565b61086f565b610114610137366004611b51565b610963565b61011461014a366004611c3d565b610bf8565b61011461015d366004611c9e565b610d7d565b610114610170366004611d41565b611019565b61017d61120c565b6040516100f89190611e10565b61019d61019836600461187f565b6112f3565b6040516100f8929190611e54565b6101146101b9366004611b25565b61144b565b6101d16101cc366004611b25565b611498565b6040519081526020016100f8565b6101146101ed366004611e79565b611567565b610114610200366004611f01565b6116cb565b6000818152600160205260409020546060908190819081908190819087906001600160a01b031633146102535760405162461bcd60e51b815260040161024a90611f48565b60405180910390fd5b600080898154811061026757610267611f8a565b600091825260208220600160089092020190810154909250908167ffffffffffffffff81111561029957610299611b86565b6040519080825280602002602001820160405280156102cc57816020015b60608152602001906001900390816102b75790505b50905060008267ffffffffffffffff8111156102ea576102ea611b86565b604051908082528060200260200182016040528015610313578160200160208202803683370190505b50905060008367ffffffffffffffff81111561033157610331611b86565b60405190808252806020026020018201604052801561035a578160200160208202803683370190505b5090506000805b600187015481101561050457600087600101828154811061038457610384611f8a565b60009182526020808320909101546001600160a01b031680835260058b0190915260409091205490915060ff16156104f1576001600160a01b0381166000908152600289016020526040902080546103db90611fa0565b80601f016020809104026020016040519081016040528092919081815260200182805461040790611fa0565b80156104545780601f1061042957610100808354040283529160200191610454565b820191906000526020600020905b81548152906001019060200180831161043757829003601f168201915b505050505086848151811061046b5761046b611f8a565b60200260200101819052508085848151811061048957610489611f8a565b6001600160a01b03928316602091820292909201810191909152908216600090815260058a019091526040902054845160ff909116908590859081106104d1576104d1611f8a565b60ff90921660209283029190910190910152826104ed81611ff1565b9350505b50806104fc81611ff1565b915050610361565b503360009081526004870160205260409020805485908590859060068b019060078c0190869061053390611fa0565b80601f016020809104026020016040519081016040528092919081815260200182805461055f90611fa0565b80156105ac5780601f10610581576101008083540402835291602001916105ac565b820191906000526020600020905b81548152906001019060200180831161058f57829003601f168201915b5050505050955081805480602002602001604051908101604052809291908181526020016000905b828210156106be57600084815260209081902060408051606081019091526003850290910180546001600160a01b03168252600181018054929391929184019161061d90611fa0565b80601f016020809104026020016040519081016040528092919081815260200182805461064990611fa0565b80156106965780601f1061066b57610100808354040283529160200191610696565b820191906000526020600020905b81548152906001019060200180831161067957829003601f168201915b50505091835250506002919091015460ff1660209182015290825260019290920191016105d4565b50505050915080805480602002602001604051908101604052809291908181526020016000905b828210156107be576000848152602090819020604080518082019091526002850290910180546001600160a01b03168252600181018054929391929184019161072d90611fa0565b80601f016020809104026020016040519081016040528092919081815260200182805461075990611fa0565b80156107a65780601f1061077b576101008083540402835291602001916107a6565b820191906000526020600020905b81548152906001019060200180831161078957829003601f168201915b505050505081525050815260200190600101906106e5565b5050505090509c509c509c509c509c509c505050505050505091939550919395565b60008281526001602052604090205482906001600160a01b031633146108185760405162461bcd60e51b815260040161024a90611f48565b60026000848154811061082d5761082d611f8a565b600091825260208083206001600160a01b039690961683526008919091029094016005019093526040909220805460ff191660ff909316929092179091555050565b60008281526001602052604090205482906001600160a01b031633146108a75760405162461bcd60e51b815260040161024a90611f48565b6002600084815481106108bc576108bc611f8a565b60009182526020808320338452600892909202909101600501905260408120805460ff191660ff93909316929092179091558054600391908590811061090457610904611f8a565b600091825260208083206001600160a01b039690961680845260089290920290950160050185526040808320805460ff191660ff9590951694909417909355948152600190935290912080546001600160a01b03191690921790915550565b60008381526001602052604090205483906001600160a01b0316331461099b5760405162461bcd60e51b815260040161024a90611f48565b60008085815481106109af576109af611f8a565b600091825260208083206001600160a01b038816845260089290920290910160050181526040808320805460ff191660ff95909516949094179093558251908101909252808252805486908110610a0857610a08611f8a565b90600052602060002090600802016004016000856001600160a01b03166001600160a01b031681526020019081526020016000209080519060200190610a4f9291906117e6565b506040518060200160405280600081525060008581548110610a7357610a73611f8a565b90600052602060002090600802016003016000856001600160a01b03166001600160a01b031681526020019081526020016000209080519060200190610aba9291906117e6565b5060008481548110610ace57610ace611f8a565b9060005260206000209060080201600101600160008681548110610af457610af4611f8a565b906000526020600020906008020160010180549050610b13919061200c565b81548110610b2357610b23611f8a565b600091825260208220015481546001600160a01b03909116919086908110610b4d57610b4d611f8a565b90600052602060002090600802016001018381548110610b6f57610b6f611f8a565b9060005260206000200160006101000a8154816001600160a01b0302191690836001600160a01b0316021790555060008481548110610bb057610bb0611f8a565b9060005260206000209060080201600101805480610bd057610bd0612023565b600082815260209020810160001990810180546001600160a01b031916905501905550505050565b6000808481548110610c0c57610c0c611f8a565b906000526020600020906008020160060180549050905060008481548110610c3657610c36611f8a565b600091825260208220600660089092020101805460010181558152805433919086908110610c6657610c66611f8a565b90600052602060002090600802016006018281548110610c8857610c88611f8a565b906000526020600020906003020160000160006101000a8154816001600160a01b0302191690836001600160a01b031602179055508260008581548110610cd157610cd1611f8a565b90600052602060002090600802016006018281548110610cf357610cf3611f8a565b90600052602060002090600302016001019080519060200190610d179291906117e6565b508160008581548110610d2c57610d2c611f8a565b90600052602060002090600802016006018281548110610d4e57610d4e611f8a565b906000526020600020906003020160020160006101000a81548160ff021916908360ff16021790555050505050565b60008581526001602052604090205485906001600160a01b03163314610db55760405162461bcd60e51b815260040161024a90611f48565b60008681548110610dc857610dc8611f8a565b600091825260208083206001600160a01b03891684526005600890930201919091019052604090205460ff16610e5d5760405162461bcd60e51b815260206004820152603460248201527f43616e6e6f742061646420616e2061646472657373207468617420616c726561604482015273191e481adb9bdddcc81d1a1a5cc81cd958dc995d60621b606482015260840161024a565b60008681548110610e7057610e70611f8a565b600091825260208083206001600890930201820180549283018155835282200180546001600160a01b0388166001600160a01b0319909116179055805485919088908110610ec057610ec0611f8a565b90600052602060002090600802016002016000876001600160a01b03166001600160a01b031681526020019081526020016000209080519060200190610f079291906117e6565b508260008781548110610f1c57610f1c611f8a565b90600052602060002090600802016003016000876001600160a01b03166001600160a01b031681526020019081526020016000209080519060200190610f639291906117e6565b508160008781548110610f7857610f78611f8a565b90600052602060002090600802016004016000876001600160a01b03166001600160a01b031681526020019081526020016000209080519060200190610fbf9291906117e6565b506000808781548110610fd457610fd4611f8a565b600091825260208083206001600160a01b039990991683526008919091029097016005019096526040909520805460ff191660ff909616959095179094555050505050565b60008281526001602052604090205482906001600160a01b031633146110515760405162461bcd60e51b815260040161024a90611f48565b6000838154811061106457611064611f8a565b9060005260206000209060080201600101805490508251146111145760405162461bcd60e51b815260206004820152605e60248201527f546865206e756d626572206f6620656e6372797074656420736563726574732060448201527f6d757374206d6174636820746865206e756d626572206f66206164647265737360648201527f657320776974682061636365737320746f2074686973207365637265742e0000608482015260a40161024a565b60005b6000848154811061112a5761112a611f8a565b9060005260206000209060080201600101805490508110156112065782818151811061115857611158611f8a565b60200260200101516000858154811061117357611173611f8a565b9060005260206000209060080201600401600080878154811061119857611198611f8a565b906000526020600020906008020160010184815481106111ba576111ba611f8a565b60009182526020808320909101546001600160a01b03168352828101939093526040909101902082516111f393919291909101906117e6565b50806111fe81611ff1565b915050611117565b50505050565b336000908152600260205260408120546060919067ffffffffffffffff81111561123857611238611b86565b604051908082528060200260200182016040528015611261578160200160208202803683370190505b5090506000805b6000548110156112eb576000818154811061128557611285611f8a565b600091825260208083203384526005600890930201919091019052604090205460ff16156112d957808383815181106112c0576112c0611f8a565b6020908102919091010152816112d581611ff1565b9250505b806112e381611ff1565b915050611268565b509092915050565b60606000806000848154811061130b5761130b611f8a565b600091825260208083203384526005600890930201918201905260409091205490915060ff1661138f5760405162461bcd60e51b815260206004820152602960248201527f53656e646572206973206e6f7420616c6c6f77656420746f20766965772074686044820152681a5cc81cd958dc995d60ba1b606482015260840161024a565b33600090815260048201602090815260408083206005850190925290912054815460ff9091169082906113c190611fa0565b80601f01602080910402602001604051908101604052809291908181526020018280546113ed90611fa0565b801561143a5780601f1061140f5761010080835404028352916020019161143a565b820191906000526020600020905b81548152906001019060200180831161141d57829003601f168201915b505050505091509250925050915091565b60008281526001602052604090205482906001600160a01b031633146114835760405162461bcd60e51b815260040161024a90611f48565b60016000848154811061082d5761082d611f8a565b60008281526001602052604081205483906001600160a01b031633146114d05760405162461bcd60e51b815260040161024a90611f48565b60008085815481106114e4576114e4611f8a565b9060005260206000209060080201905060005b600182015481101561155857846001600160a01b031682600101828154811061152257611522611f8a565b6000918252602090912001546001600160a01b031614156115465792506115609050565b8061155081611ff1565b9150506114f7565b506000199250505b5092915050565b600080546001908101808355828052611580919061200c565b9050836000828154811061159657611596611f8a565b906000526020600020906008020160000190805190602001906115ba9291906117e6565b5082600082815481106115cf576115cf611f8a565b6000918252602080832033845260036008909302019190910181526040909120825161160193919291909101906117e6565b50816000828154811061161657611616611f8a565b6000918252602080832033845260046008909302019190910181526040909120825161164893919291909101906117e6565b5060036000828154811061165e5761165e611f8a565b60009182526020808320338085526008939093020160050181526040808420805460ff191660ff96909616959095179094558483526001815283832080546001600160a01b03191683179055908252600290529081208054916116c083611ff1565b919050555050505050565b60008083815481106116df576116df611f8a565b90600052602060002090600802016007018054905090506000838154811061170957611709611f8a565b60009182526020822060076008909202010180546001018155815280543391908590811061173957611739611f8a565b9060005260206000209060080201600701828154811061175b5761175b611f8a565b906000526020600020906002020160000160006101000a8154816001600160a01b0302191690836001600160a01b0316021790555081600084815481106117a4576117a4611f8a565b906000526020600020906008020160070182815481106117c6576117c6611f8a565b906000526020600020906002020160010190805190602001906112069291905b8280546117f290611fa0565b90600052602060002090601f016020900481019282611814576000855561185a565b82601f1061182d57805160ff191683800117855561185a565b8280016001018555821561185a579182015b8281111561185a57825182559160200191906001019061183f565b5061186692915061186a565b5090565b5b80821115611866576000815560010161186b565b60006020828403121561189157600080fd5b5035919050565b6000815180845260005b818110156118be576020818501810151868301820152016118a2565b818111156118d0576000602083870101525b50601f01601f19169290920160200192915050565b600081518084526020808501945080840160005b8381101561191e5781516001600160a01b0316875295820195908201906001016118f9565b509495945050505050565b600081518084526020808501945080840160005b8381101561191e57815160ff168752958201959082019060010161193d565b600081518084526020808501808196508360051b8101915082860160005b858110156119d3578284038952815180516001600160a01b03168552858101516060878701819052906119af82880182611898565b60409384015160ff169790930196909652509885019893509084019060010161197a565b5091979650505050505050565b600081518084526020808501808196508360051b8101915082860160005b858110156119d3578284038952815180516001600160a01b031685528501516040868601819052611a3181870183611898565b9a87019a95505050908401906001016119fe565b60c081526000611a5860c0830189611898565b6020838203818501528189518084528284019150828160051b850101838c0160005b83811015611aa857601f19878403018552611a96838351611898565b94860194925090850190600101611a7a565b50508681036040880152611abc818c6118e5565b9450505050508281036060840152611ad48187611929565b90508281036080840152611ae8818661195c565b905082810360a0840152611afc81856119e0565b9998505050505050505050565b80356001600160a01b0381168114611b2057600080fd5b919050565b60008060408385031215611b3857600080fd5b82359150611b4860208401611b09565b90509250929050565b600080600060608486031215611b6657600080fd5b83359250611b7660208501611b09565b9150604084013590509250925092565b634e487b7160e01b600052604160045260246000fd5b604051601f8201601f1916810167ffffffffffffffff81118282101715611bc557611bc5611b86565b604052919050565b600082601f830112611bde57600080fd5b813567ffffffffffffffff811115611bf857611bf8611b86565b611c0b601f8201601f1916602001611b9c565b818152846020838601011115611c2057600080fd5b816020850160208301376000918101602001919091529392505050565b600080600060608486031215611c5257600080fd5b83359250602084013567ffffffffffffffff811115611c7057600080fd5b611c7c86828701611bcd565b925050604084013560ff81168114611c9357600080fd5b809150509250925092565b600080600080600060a08688031215611cb657600080fd5b85359450611cc660208701611b09565b9350604086013567ffffffffffffffff80821115611ce357600080fd5b611cef89838a01611bcd565b94506060880135915080821115611d0557600080fd5b611d1189838a01611bcd565b93506080880135915080821115611d2757600080fd5b50611d3488828901611bcd565b9150509295509295909350565b60008060408385031215611d5457600080fd5b8235915060208084013567ffffffffffffffff80821115611d7457600080fd5b818601915086601f830112611d8857600080fd5b813581811115611d9a57611d9a611b86565b8060051b611da9858201611b9c565b918252838101850191858101908a841115611dc357600080fd5b86860192505b83831015611dff57823585811115611de15760008081fd5b611def8c89838a0101611bcd565b8352509186019190860190611dc9565b809750505050505050509250929050565b6020808252825182820181905260009190848201906040850190845b81811015611e4857835183529284019291840191600101611e2c565b50909695505050505050565b604081526000611e676040830185611898565b905060ff831660208301529392505050565b600080600060608486031215611e8e57600080fd5b833567ffffffffffffffff80821115611ea657600080fd5b611eb287838801611bcd565b94506020860135915080821115611ec857600080fd5b611ed487838801611bcd565b93506040860135915080821115611eea57600080fd5b50611ef786828701611bcd565b9150509250925092565b60008060408385031215611f1457600080fd5b82359150602083013567ffffffffffffffff811115611f3257600080fd5b611f3e85828601611bcd565b9150509250929050565b60208082526022908201527f4f6e6c79206f776e6572732063616e2063616c6c20746869732066756e63746960408201526137b760f11b606082015260800190565b634e487b7160e01b600052603260045260246000fd5b600181811c90821680611fb457607f821691505b60208210811415611fd557634e487b7160e01b600052602260045260246000fd5b50919050565b634e487b7160e01b600052601160045260246000fd5b600060001982141561200557612005611fdb565b5060010190565b60008282101561201e5761201e611fdb565b500390565b634e487b7160e01b600052603160045260246000fdfea2646970667358221220ab54455a3e10ac491d7f001b0e81a3e6e374be6be03294414648a8bfbb5e89be64736f6c634300080a0033",
  "immutableReferences": {},
  "source": "pragma solidity 0.8.10;\r\n\r\nimport \"./SecretUser.sol\";\r\n\r\ncontract SecretMutability is SecretUser\r\n{\r\n    /// @notice Create a new secret, assigning the creator as the owner\r\n    /// @param _ownerPublicKey Name of the secret, stored in an unencrypted state\r\n    /// @param _ownerPublicKey Public key of the owner\r\n    /// @param _encryptedSecret Secret encrypted with the owner's public key\r\n    function createSecret(string memory _secretName, string memory _ownerPublicKey, string memory _encryptedSecret) public\r\n    {\r\n        secrets.push();\r\n        uint id = secrets.length - 1;\r\n        \r\n        secrets[id].secretName = _secretName;\r\n        secrets[id].publicKeys[msg.sender] = _ownerPublicKey;\r\n        secrets[id].encryptedSecrets[msg.sender] = _encryptedSecret;\r\n        secrets[id].permissions[msg.sender] = 3; // set created to be the owner\r\n        \r\n        secretToOwner[id] = msg.sender;\r\n        \r\n        ownerSecretCount[msg.sender] ++;\r\n    }\r\n    \r\n    /// @notice Lets someone request access to a secret\r\n    /// @param _secretId Id of the secret\r\n    /// @param _publicKey Public key of the user requesting access\r\n    /// @param _requestedPermission Requested permissions\r\n    function requestAccess(uint _secretId, string memory _publicKey, uint8 _requestedPermission) public\r\n    {\r\n        uint id = secrets[_secretId].accessRequests.length;\r\n        secrets[_secretId].accessRequests.push();\r\n        \r\n        secrets[_secretId].accessRequests[id].user = msg.sender;\r\n        secrets[_secretId].accessRequests[id].publicKey = _publicKey;\r\n        secrets[_secretId].accessRequests[id].requestedPermission = _requestedPermission;\r\n    }\r\n     \r\n    /// @notice Lets someone request to change a secret\r\n    /// @param _secretId Id of the secret\r\n    /// @param _newSecret New value of the secret, encoded with the owner's public key\r\n    function requestChange(uint _secretId, string memory _newSecret) public\r\n    {\r\n        uint id = secrets[_secretId].changeRequests.length;\r\n        secrets[_secretId].changeRequests.push();\r\n        \r\n        secrets[_secretId].changeRequests[id].user = msg.sender;\r\n        secrets[_secretId].changeRequests[id].newSecret = _newSecret;\r\n    }\r\n    \r\n    /// @notice Lets the owner of a secret change it\r\n    /// @param _secretId ID of the secret\r\n    /// @param _newEncryptedSecrets List of secrets encrypted for each user\r\n    function changeSecret(uint _secretId, string[] memory _newEncryptedSecrets) public onlySecretOwner(_secretId)\r\n    {\r\n        require (_newEncryptedSecrets.length ==  secrets[_secretId].addresses.length, \"The number of encrypted secrets must match the number of addresses with access to this secret.\");\r\n        \r\n        for (uint i = 0; i < secrets[_secretId].addresses.length; i ++)\r\n        {\r\n            secrets[_secretId].encryptedSecrets[secrets[_secretId].addresses[i]] = _newEncryptedSecrets[i];\r\n        }\r\n    }\r\n}",
  "sourcePath": "D:\\Projects\\Crypto\\Secrets on the Chain\\contracts\\SecretMutability.sol",
  "compiler": {
    "name": "solc",
    "version": "0.8.10+commit.fc410830.Emscripten.clang"
  },
  "schemaVersion": "3.4.3",
  "updatedAt": "2021-11-24T23:37:15.819Z",
  "networkType": "ethereum",
  "devdoc": {
    "kind": "dev",
    "methods": {
      "addNewUser(uint256,address,string,string,string)": {
        "params": {
          "_address": "Address of the new user",
          "_encryptedSecret": "Address-specific encrypted version of the secret",
          "_name": "Name of the new user, selected by the owner",
          "_publicKey": "Public key of the new user",
          "_secretId": "ID of the secret"
        }
      },
      "changeSecret(uint256,string[])": {
        "params": {
          "_newEncryptedSecrets": "List of secrets encrypted for each user",
          "_secretId": "ID of the secret"
        }
      },
      "createSecret(string,string,string)": {
        "params": {
          "_encryptedSecret": "Secret encrypted with the owner's public key",
          "_ownerPublicKey": "Public key of the owner"
        }
      },
      "getIndexOfAddress(uint256,address)": {
        "details": "returns -1 if the address does not have access to this secret",
        "params": {
          "_address": "Address for which an index will be provided",
          "_secretId": "ID of the secret"
        }
      },
      "getSecret(uint256)": {
        "returns": {
          "_encryptedSecret": "Sender-specific encrypted version of the secret",
          "_permission": "Permission level of the owner"
        }
      },
      "getUserSecrets()": {
        "returns": {
          "_0": "Array of all the secret IDs"
        }
      },
      "makeAddressEditor(uint256,address)": {
        "params": {
          "_address": "address of the new editor",
          "_secretId": "ID of the secret"
        }
      },
      "makeAddressOwner(uint256,address)": {
        "params": {
          "_address": "Address of the new owner",
          "_secretId": "ID of the secret"
        }
      },
      "makeAddressViewer(uint256,address)": {
        "params": {
          "_address": "address of the new viewer",
          "_secretId": "ID of the secret"
        }
      },
      "ownerGetSecret(uint256)": {
        "returns": {
          "_addresses": "Addresses for each user allowed access to the secret",
          "_encryptedSecret": "Sender-specific encrypted version of the secret",
          "_names": "Names for each address",
          "_permission": "Permissions for each address"
        }
      },
      "removeUserFromSecret(uint256,address,uint256)": {
        "params": {
          "_address": "Address of the old user",
          "_secretId": "ID of the secret",
          "_userId": "ID of the old user, given by getIndexOfAddress(address _address)"
        }
      },
      "requestAccess(uint256,string,uint8)": {
        "params": {
          "_publicKey": "Public key of the user requesting access",
          "_requestedPermission": "Requested permissions",
          "_secretId": "Id of the secret"
        }
      },
      "requestChange(uint256,string)": {
        "params": {
          "_newSecret": "New value of the secret, encoded with the owner's public key",
          "_secretId": "Id of the secret"
        }
      }
    },
    "version": 1
  },
  "userdoc": {
    "kind": "user",
    "methods": {
      "addNewUser(uint256,address,string,string,string)": {
        "notice": "adds a user to a secret with no access.  Must be run before trying to change an address' permissions"
      },
      "changeSecret(uint256,string[])": {
        "notice": "Lets the owner of a secret change it"
      },
      "createSecret(string,string,string)": {
        "notice": "Create a new secret, assigning the creator as the owner"
      },
      "getIndexOfAddress(uint256,address)": {
        "notice": "Gets the index of an address"
      },
      "getSecret(uint256)": {
        "notice": "Gets a secret by its ID"
      },
      "getUserSecrets()": {
        "notice": "Gets all the secrets the sender knows"
      },
      "makeAddressEditor(uint256,address)": {
        "notice": "Lets the owner of a secret make an address an editor"
      },
      "makeAddressOwner(uint256,address)": {
        "notice": "Lets the owner of a secret transfer ownership"
      },
      "makeAddressViewer(uint256,address)": {
        "notice": "Lets the owner of a secret make an address a viewer"
      },
      "ownerGetSecret(uint256)": {
        "notice": "Gets all information on a secret"
      },
      "removeUserFromSecret(uint256,address,uint256)": {
        "notice": "Lets the owner of a secret remove a user from the secret"
      },
      "requestAccess(uint256,string,uint8)": {
        "notice": "Lets someone request access to a secret"
      },
      "requestChange(uint256,string)": {
        "notice": "Lets someone request to change a secret"
      }
    },
    "version": 1
  }
}